:020000040800F2
:10000000000002208D5D00085130000857300008C4
:100010005D3000086330000869300008000000000F
:100020000000000000000000000000006F30000829
:100030007D300008000000008B3000089930000877
:10004000DD5D0008DD5D0008DD5D0008DD5D0008A8
:10005000DD5D0008DD5D0008DD5D0008DD5D000898
:10006000DD5D0008DD5D0008DD5D0008DD5D000888
:10007000DD5D0008DD5D0008DD5D0008DD5D000878
:10008000DD5D0008DD5D0008DD5D0008DD5D000868
:10009000DD5D0008DD5D0008DD5D0008DD5D000858
:1000A000DD5D0008DD5D0008DD5D0008DD5D000848
:1000B000DD5D0008DD5D0008DD5D0008DD5D000838
:1000C000DD5D0008DD5D0008DD5D0008DD5D000828
:1000D000DD5D0008DD5D0008A5300008DD5D00087D
:1000E000DD5D0008DD5D0008DD5D0008DD5D000808
:1000F000DD5D0008DD5D0008DD5D0008DD5D0008F8
:10010000DD5D0008DD5D0008DD5D0008DD5D0008E7
:10011000DD5D0008DD5D0008DD5D0008DD5D0008D7
:10012000DD5D0008DD5D0008DD5D0008DD5D0008C7
:10013000DD5D00080000000000000000DD5D00083B
:10014000DD5D0008DD5D0008DD5D0008B9300008F8
:10015000DD5D0008DD5D0008DD5D0008DD5D000897
:10016000DD5D0008DD5D0008DD5D0008DD5D000887
:10017000DD5D0008DD5D00080000000000000000FB
:08018000DD5D0008DD5D0008F3
:1001900010B5054C237833B9044B13B10448AFF3C1
:1001A00000800123237010BD7803002000000000B0
:1001B0002078010808B5034B1BB103490348AFF38E
:1001C000008008BD000000007C03002020780108AA
:1001D000034613F8012B002AFBD1181A0138704787
:1001E00001F0FF01102A2BDB10F0070F08D010F8E8
:1001F000013B013A8B422DD010F0070F42B3F6D1EC
:10020000F0B441EA012141EA014122F007047FF004
:1002100000070023F0E80256083C85EA010586EA5B
:10022000010685FA47F5A3FA87F586FA47F6A5FA97
:1002300087F68EB9EED1F0BC01F0FF0102F00702A3
:1002400032B110F8013B013A83EA010313B1F8D14E
:100250000020704701387047002D06BF354603382F
:10026000073815F0010F07D1013015F4807F02BF68
:10027000013015F4C03F0130F0BC0138704700BFB9
:1002800081F0004102E000BF83F0004330B54FEA47
:1002900041044FEA430594EA050F08BF90EA020FB4
:1002A0001FBF54EA000C55EA020C7FEA645C7FEA47
:1002B000655C00F0E2804FEA5454D4EB5555B8BF6A
:1002C0006D420CDD2C4480EA020281EA030382EADB
:1002D000000083EA010180EA020281EA0303362D6D
:1002E00088BF30BD11F0004F4FEA01314FF4801C40
:1002F0004CEA113102D0404261EB410113F0004F52
:100300004FEA03334CEA133302D0524263EB430308
:1003100094EA050F00F0A780A4F10104D5F1200EA6
:100320000DDB02FA0EFC22FA05F2801841F1000101
:1003300003FA0EF2801843FA05F359410EE0A5F1D5
:1003400020050EF1200E012A03FA0EFC28BF4CF006
:10035000020C43FA05F3C01851EBE37101F00045BC
:1003600007D54FF0000EDCF1000C7EEB00006EEBC9
:100370000101B1F5801F1BD3B1F5001F0CD3490853
:100380005FEA30004FEA3C0C04F101044FEA4452AA
:1003900012F5800F80F09A80BCF1004F08BF5FEA31
:1003A000500C50F1000041EB045141EA050130BD11
:1003B0005FEA4C0C404141EB0101013C28BFB1F523
:1003C000801FE9D291F0000F04BF01460020B1FA6E
:1003D00081F308BF2033A3F10B03B3F120020CDA41
:1003E0000C3208DD02F1140CC2F10C0201FA0CF01F
:1003F00021FA02F10CE002F11402D8BFC2F1200C84
:1004000001FA02F120FA0CFCDCBF41EA0C01904039
:10041000E41AA2BF01EB0451294330BD6FEA040482
:100420001F3C1CDA0C340EDC04F11404C4F120026D
:1004300020FA04F001FA02F340EA030021FA04F37F
:1004400045EA030130BDC4F10C04C4F1200220FAD6
:1004500002F001FA04F340EA0300294630BD21FA14
:1004600004F0294630BD94F0000F83F4801306BFDA
:1004700081F480110134013D4EE77FEA645C18BFCE
:100480007FEA655C29D094EA050F08BF90EA020F65
:1004900005D054EA000C04BF1946104630BD91EA5D
:1004A000030F1EBF0021002030BD5FEA545C05D160
:1004B0004000494128BF41F0004130BD14F580049F
:1004C0003CBF01F5801130BD01F0004545F0FE4113
:1004D00041F470014FF0000030BD7FEA645C1ABF48
:1004E000194610467FEA655C1CBF0B46024650EA7F
:1004F000013406BF52EA033591EA030F41F40021AB
:1005000030BD00BF90F0000F04BF0021704730B530
:100510004FF4806404F132044FF000054FF0000105
:1005200050E700BF90F0000F04BF0021704730B5C6
:100530004FF4806404F1320410F0004548BF40429B
:100540004FF000013EE700BF42004FEAE2014FEAF0
:1005500031014FEA02701FBF12F07F4393F07F4FCB
:1005600081F06051704732F07F4208BF704793F0CE
:100570007F4F04BF41F40021704730B54FF46074E1
:1005800001F0004521F000411CE700BF50EA0102E4
:1005900008BF704730B54FF000050AE050EA01028D
:1005A00008BF704730B511F0004502D5404261EBFD
:1005B00041014FF4806404F132045FEA915C3FF43E
:1005C000D8AE4FF003025FEADC0C18BF03325FEADB
:1005D000DC0C18BF033202EBDC02C2F1200300FA8C
:1005E00003FC20FA02F001FA03FE40EA0E0021FAB1
:1005F00002F11444BDE600BF70B54FF0FF0C4CF49F
:10060000E06C1CEA11541DBF1CEA135594EA0C0F50
:1006100095EA0C0F00F0DEF82C4481EA030621EA8B
:100620004C5123EA4C5350EA013518BF52EA0335C6
:1006300041F4801143F4801338D0A0FB02CE4FF078
:100640000005E1FB02E506F00042E0FB03E54FF0A8
:100650000006E1FB03569CF0000F18BF4EF0010EA0
:10066000A4F1FF04B6F5007F64F5407404D25FEA9C
:100670004E0E6D4146EB060642EAC62141EA55514F
:100680004FEAC52040EA5E504FEACE2EB4F1FD0C91
:1006900088BFBCF5E06F1ED8BEF1004F08BF5FEA0F
:1006A000500E50F1000041EB045170BD06F00046C1
:1006B00046EA010140EA020081EA0301B4EB5C046E
:1006C000C2BFD4EB0C0541EA045170BD41F4801166
:1006D0004FF0000E013C00F3AB8014F1360FDEBF8B
:1006E000002001F0004170BDC4F10004203C35DA67
:1006F0000C341BDC04F11404C4F1200500FA05F3EA
:1007000020FA04F001FA05F240EA020001F000428A
:1007100021F0004110EBD37021FA04F642EB060100
:100720005EEA430E08BF20EAD37070BDC4F10C042A
:10073000C4F1200500FA04F320FA05F001FA04F2EE
:1007400040EA020001F0004110EBD37041F10001DA
:100750005EEA430E08BF20EAD37070BDC4F12005E5
:1007600000FA05F24EEA020E20FA04F301FA05F24D
:1007700043EA020321FA04F001F0004121FA04F2F5
:1007800020EA020000EBD3705EEA430E08BF20EAC5
:10079000D37070BD94F0000F0FD101F000464000FF
:1007A00041EB010111F4801F08BF013CF7D041EA81
:1007B000060195F0000F18BF704703F00046520085
:1007C00043EB030313F4801F08BF013DF7D043EA56
:1007D0000603704794EA0C0F0CEA135518BF95EA0C
:1007E0000C0F0CD050EA410618BF52EA4306D1D193
:1007F00081EA030101F000414FF0000070BD50EAB2
:10080000410606BF1046194652EA430619D094EA3B
:100810000C0F02D150EA013613D195EA0C0F05D125
:1008200052EA03361CBF104619460AD181EA030179
:1008300001F0004141F0FE4141F470014FF0000031
:1008400070BD41F0FE4141F4780170BD70B54FF0CC
:10085000FF0C4CF4E06C1CEA11541DBF1CEA13554C
:1008600094EA0C0F95EA0C0F00F0A7F8A4EB05042E
:1008700081EA030E52EA03354FEA013100F0888025
:100880004FEA03334FF0805545EA131343EA1263EE
:100890004FEA022245EA111545EA10654FEA0026A3
:1008A0000EF000419D4208BF964244F1FD0404F55C
:1008B000407402D25B084FEA3202B61A65EB0305B8
:1008C0005B084FEA32024FF480104FF4002CB6EB75
:1008D000020E75EB030E22BFB61A754640EA0C00F5
:1008E0005B084FEA3202B6EB020E75EB030E22BF35
:1008F000B61A754640EA5C005B084FEA3202B6EB76
:10090000020E75EB030E22BFB61A754640EA9C0034
:100910005B084FEA3202B6EB020E75EB030E22BF04
:10092000B61A754640EADC0055EA060E18D04FEAC2
:10093000051545EA16754FEA06164FEAC30343EA62
:1009400052734FEAC2025FEA1C1CC0D111F4801F2F
:100950000BD141EA00014FF000004FF0004CB6E728
:1009600011F4801F04BF01430020B4F1FD0C88BFC7
:10097000BCF5E06F3FF6AFAEB5EB030C04BFB6EBD2
:10098000020C5FEA500C50F1000041EB045170BDC5
:100990000EF0004E4EEA113114EB5C04C2BFD4EBF2
:1009A0000C0541EA045170BD41F480114FF0000E76
:1009B000013C90E645EA060E8DE60CEA135594EAF2
:1009C0000C0F08BF95EA0C0F3FF43BAF94EA0C0FF5
:1009D0000AD150EA01347FF434AF95EA0C0F7FF46A
:1009E00025AF104619462CE795EA0C0F06D152EABE
:1009F00003353FF4FDAE1046194622E750EA4106A2
:100A000018BF52EA43067FF4C5AE50EA41047FF4B2
:100A10000DAF52EA43057FF4EBAE12E74FF0FF3C17
:100A200006E000BF4FF0010C02E000BF4FF0010CE8
:100A30004DF804CD4FEA410C7FEA6C5C4FEA430C61
:100A400018BF7FEA6C5C1BD001B050EA410C0CBFB0
:100A500052EA430C91EA030F02BF90EA020F002012
:100A6000704710F1000F91EA030F58BF994208BF79
:100A700090422CBFD8176FEAE37040F00100704736
:100A80004FEA410C7FEA6C5C02D150EA013C07D18D
:100A90004FEA430C7FEA6C5CD6D152EA033CD3D0D8
:100AA0005DF8040B704700BF8446104662468C46D2
:100AB0001946634600E000BF01B5FFF7B7FF002805
:100AC00048BF10F1000F01BD4DF808EDFFF7F4FF2E
:100AD0000CBF012000205DF808FB00BF4DF808EDB9
:100AE000FFF7EAFF34BF012000205DF808FB00BFDC
:100AF0004DF808EDFFF7E0FF94BF012000205DF8FE
:100B000008FB00BF4DF808EDFFF7CEFF94BF0120B2
:100B100000205DF808FB00BF4DF808EDFFF7C4FFAB
:100B200034BF012000205DF808FB00BF4FEA410CF4
:100B30007FEA6C5C02D150EA013C0AD14FEA430CD7
:100B40007FEA6C5C02D152EA033C02D14FF0000014
:100B500070474FF0010070474FEA410212F5001252
:100B600015D211D56FF47873B3EB625212D94FEAF4
:100B7000C12343F0004343EA505311F0004F23FADE
:100B800002F018BF404270474FF00000704750EA33
:100B9000013005D111F0004008BF6FF000407047F0
:100BA0004FF00000704700BF4A0011D212F500124A
:100BB00011D20DD56FF47873B3EB62520ED44FEAB5
:100BC000C12343F0004343EA505323FA02F0704735
:100BD0004FF00000704750EA013002D14FF0FF3073
:100BE00070474FF0000070474FEA4102B2F1E04316
:100BF00024BFB3F5001CDCF1FE5C0DD901F0004C04
:100C00004FEAC0024CEA5070B2F1004F40EB830053
:100C100008BF20F00100704711F0804F21D113F17F
:100C20003872BCBF01F00040704741F480114FEAB8
:100C30005252C2F11802C2F1200C10FA0CF320FA41
:100C400002F018BF40F001004FEAC1234FEAD3235E
:100C500003FA0CFC40EA0C0023FA02F34FEA4303C8
:100C6000CCE77FEA625307D150EA01331EBF4FF051
:100C7000FE4040F44000704701F0004040F0FE406C
:100C800040F40000704700BF53B94AB9002908BFBB
:100C900000281CBF4FF0FF314FF0FF3000F0A4B927
:100CA000ADF1080C6DE904CE00F03CF8DDF804E08D
:100CB000DDE9022304B0704738B500220023044662
:100CC0000D46FFF70BFF28B920462946BDE83840FE
:100CD00000F00AB8204605F1004100F005F8404256
:100CE00061EB410138BD00BFD0B50C4B0022064678
:100CF0000F46FFF781FCFFF757FF0446FFF702FCA2
:100D0000074B0022FFF778FC02460B463046394677
:100D1000FFF7BAFAFFF748FF2146D0BD0000F03DCB
:100D20000000F0412DE9F047089D04468C46002B59
:100D300040F083808A42174647D9B2FA82F242B124
:100D4000C2F1200024FA00F09140974040EA010CE3
:100D500094404FEA1748230CBCFBF8F61FFA87FEB5
:100D600008FB16C143EA014306FB0EF1994209D97B
:100D7000FB1806F1FF3080F01981994240F216818C
:100D8000023E3B445B1AA4B2B3FBF8F008FB1033FD
:100D900044EA034400FB0EFEA64509D93C1900F1C4
:100DA000FF3380F00581A64540F2028102383C44C1
:100DB00040EA0640A4EB0E0400261DB1D4400023F7
:100DC000C5E900433146BDE8F08702B9FFDEB2FA5B
:100DD00082F2002A50D1CB1B4FEA174E1FFA87F838
:100DE0000126B3FBFEFC210C0EFB1C3341EA034140
:100DF00008FB0CF38B4207D979180CF1FF3002D2B3
:100E00008B4200F2E9808446C91AA3B2B1FBFEF01E
:100E10000EFB101143EA014408FB00F8A04507D976
:100E20003C1900F1FF3302D2A04500F2D9801846E8
:100E3000A4EB080440EA0C40BFE78B4209D9002D1F
:100E400000F0B1800026C5E9000130463146BDE81A
:100E5000F087B3FA83F6002E4AD18B4202D3824246
:100E600000F2B880841A61EB030101208C46002D4A
:100E7000A8D0C5E9004CA5E7C2F1200320FA03F68B
:100E8000974001FA02F04FEA174ED9403043030C65
:100E9000B1FBFEF61FFA87F80EFB161143EA014379
:100EA00006FB08F1994204FA02F409D9FB1806F18D
:100EB000FF3C80F08D80994240F28A80023E3B44A4
:100EC0005B1A81B2B3FBFEF00EFB103341EA034123
:100ED00000FB08F38B4207D9791800F1FF3C73D26D
:100EE0008B4271D902383944CB1A40EA064678E77A
:100EF000C6F1200C03FA06F422FA0CF31C4320FA84
:100F00000CF701FA06F34FEA144E21FA0CF11F43D5
:100F10003B0CB1FBFEF91FFA84F80EFB191143EAF2
:100F2000014109FB08FA8A4502FA06F200FA06F3C3
:100F300008D9611809F1FF3048D28A4546D9A9F18C
:100F400002092144A1EB0A01BFB2B1FBFEF00EFB86
:100F5000101147EA014700FB08F8B84507D9E7191F
:100F600000F1FF312ED2B8452CD90238274440EA8F
:100F70000940A7EB0807A0FB02894F45C646494632
:100F80001AD317D05DB1B3EB0E0267EB010707FA76
:100F90000CFCF2404CEA0202F740C5E900270026AB
:100FA0003146BDE8F0872E4628460BE70646E9E6BF
:100FB0001846FDE64345E5D2B8EB020E69EB0401A5
:100FC0000138DFE70846D2E760468DE78146B9E79A
:100FD000664675E730464AE7ACF1020C394413E740
:100FE00002383C4424E700BF704700BF0000000007
:100FF000B0B586B000AF87ED010A4FF000024FF0A8
:101000000003C7E904234FF000024FF00003C7E9D3
:1010100002237868FFF798FA02460B469FED1A1BE9
:1010200043EC102B16F026F987ED040B97ED017AAF
:10103000DFED176AC7EE267AFDEEE77AF8EEE77A7B
:10104000C7ED017A7868FFF77FFA04460D464FF046
:101050000002104BD7E90401FFF7F8FB02460B46EC
:1010600020462946FFF712F902460B46C7E902233C
:10107000D7E9022343EC172BB0EE470AF0EE670ADC
:101080001837BD46B0BD00BF000000000000594049
:101090000000C84200004E4080B500AF6822002129
:1010A000064810F0C3FF064B0022A3F800240122DB
:1010B0000449054809F023FE00BF80BDB80C00209C
:1010C000B0080020B20C00208015002080B500AFD1
:1010D00001221549154809F012FE154BB3F80034EA
:1010E0001A46134B93F80214114B9954104B93F872
:1010F0000234242B07D10E4B93F803340133DAB2B8
:101100000B4B83F803240A4BB3F8003401339AB233
:10111000074BA3F80024064B93F803340C2B01D99A
:1011200000F008F800BF80BDB20C00208015002040
:10113000B008002080B590B008AFBB48FFF748F872
:1011400003469AB2B84BA3F86C24B849B64811F0DC
:1011500086FEF861FB69002B00F04D8168220021BA
:10116000B34810F063FFB34B0693B34B0593B34BF7
:101170000493B34B0393B34B0293B34B0193B34B21
:101180000093B34BB34AB449F86911F0F7FDA64B8D
:10119000D3F83434002B03DDA34B0122C3F83424ED
:1011A000A14B93F82034002B03D19F4B2D2283F8C1
:1011B00020249D4B93F83034002B03D19A4B2D22E1
:1011C00083F83024984B93F84C34002B03D1964B82
:1011D0002D2283F84C24944B93F84434002B03D1F4
:1011E000914B2D2283F844248F4B03F58263D3ED7A
:1011F000007AF5EE407AF1EE10FA09D08A4B03F24C
:101200002443D3ED007AF5EE407AF1EE10FA12D1D4
:10121000854B03F583614FF000024FF00003C1E9F5
:101220000023814B03F585614FF000024FF000036E
:10123000C1E9002323E07C4B03F58263D3ED007A00
:10124000B0EE670AFFF7D4FEB0EE407AF0EE607AB7
:10125000754B03F5836383ED007B734B03F22443EB
:10126000D3ED007AB0EE670AFFF7C2FEB0EE407A27
:10127000F0EE607A6C4B03F5856383ED007B774974
:10128000694811F0ECFDB861BB69002B78D0744B54
:101290000193744B0093744B6E4A7449B86911F012
:1012A0006DFD614B03F58C6393ED007ADFED706AA1
:1012B000C7EE267AFDEEE77AC7ED017A3A795A4B06
:1012C00083F80824584B03F58C63D3ED007AFDEEC8
:1012D000E77A17EE902A674B83FB02131913D31793
:1012E000CB1A42F2107101FB03F3D31A07EE903AC6
:1012F000B8EEE77ADFED606AC7EE267AFCEEE77AB1
:10130000C7ED017A3B79DAB2474B83F80924464BA3
:1013100003F58C63D3ED007AFDEEE77A17EE902AA1
:10132000564B83FB02135911D317CB1A642101FBCF
:1013300003F3D31ADAB23C4B83F80A243A4BB3F8DE
:1013400066341A4642F2107303FB02F2364B93F8EE
:1013500065341946642303FB01F31344324A92F8BF
:10136000642413441A46304BC3F868242E4BD3F838
:101370006834434A934203D82B4B0022C3F86824B5
:101380004049294811F06BFD78617B69002B32D010
:1013900007F10C031A463C49786911F0EFFC03464B
:1013A000002B1EDD07F10C03184610F011FE53EC64
:1013B000102B10461946FFF717FC02461A4B03F58F
:1013C0008A631A60184B03F58A63D3ED007A9FEDA8
:1013D0002F7A67EE877A144B03F25443C3ED007AF9
:1013E00009E0114B03F58A63294A1A600E4B03F298
:1013F0005443274A1A604FF4806200210A4810F0D3
:1014000015FE094B0022A3F80024074B002283F8A5
:10141000032404F04BFD0346034AC2F8043400BF22
:101420002037BD4680BD00BFB008002038780108D5
:10143000B80C0020F00C0020EC0C0020E80C002080
:10144000E40C0020E00C0020D40C0020D00C002084
:10145000C00C0020100D00204078010864780108BD
:10146000160D0020150D0020140D00206C780108C9
:1014700000401C46AD8BDB680000C8421F85EB5165
:101480001F992C018078010888780108560EED3FDD
:10149000000080BF80B487B000AF7860FF23FB7589
:1014A00000233B6120E03B697A6813441A78FB7D96
:1014B0005340FB750823FB7310E097F91730002B9E
:1014C00006DAFB7D5B00DBB283F03103FB7502E0E3
:1014D000FB7D5B00FB75FB7B013BFB73FB7B002B08
:1014E000EBD13B6901333B613B69012BDBDDFB7DCC
:1014F00018461C37BD465DF8047B704780B586B042
:1015000002AF0323BB8100233B7110237B710323B4
:10151000BB710023FB7107F10C031846FFF7BAFFFC
:1015200003463B723A1D4FF0FF3300930523D2214F
:10153000044805F055FD0346FB7300BF1037BD4658
:1015400080BD00BFB00D002080B596B002AF032370
:10155000A7F8443007F144024FF0FF330093022311
:10156000D221354805F03CFD034687F84B3007F1A2
:1015700008024FF0FF3300933C23D2212E4805F0A0
:101580002DFE034687F84B300023FB644BE0FA6CDA
:1015900013465B0013445B0007F15002134413F839
:1015A000483C87F84A30FA6C13465B0013445B00F2
:1015B000013307F15002134413F8483C87F84930CF
:1015C000FA6C13465B0013445B00033307F15002CF
:1015D000134413F8483C87F84830FA6C13465B0014
:1015E00013445B00043307F15002134413F8483CE2
:1015F00087F8473097F84A301A0697F849301B04A5
:101600001A4397F848301B021A4397F847301343A0
:101610007B603B1D1A680949FB6C9B000B441A60F8
:10162000FB6C0133FB64FB6C092BB0DD00BF00BF1A
:101630005037BD4680BD00BFB00D0020200D0020FA
:1016400080B584B002AF40F25673BB803A1D4FF0B4
:10165000FF3300930223D221044805F0C1FC034666
:10166000FB7100BF0837BD4680BD00BFB00D002034
:1016700080B592B002AF43F2D033BB8607F134029B
:101680004FF0FF3300930223D221334805F0A8FC2A
:10169000034687F837303A1D4FF0FF33009330236D
:1016A000D2212D4805F09AFD034687F8373097F888
:1016B0003730012B04D12949294811F03FFB47E07D
:1016C000002387F83F300023BB633EE0B96B254B16
:1016D00083FB0132CB17D21A13465B001344CA1A9C
:1016E000002A1CD13A1DBB6B13441B783B70BB6BAB
:1016F000013307F14002134413F83C3C7B703B4636
:101700001846FFF7C7FE03461A46BB6B023307F1C4
:1017100040010B4413F83C3C9A4213D018E0BB6BD9
:101720005A1E97F83F3007F140010A4412F83C1C5A
:101730000D4A13440A4683F8282097F83F300133B6
:1017400087F83F30BB6B0133BB63BB6B2F2BBDD91D
:101750004037BD4680BD00BFB00D0020AC78010809
:10176000480D002056555555200D002080B584B0F9
:1017700000AF3B4600221A605A609A60DA60214B43
:10178000214A1A601F4B00225A601E4B00229A60A9
:101790001C4B00221A611B4B00221A76194B0022A7
:1017A00083F82020174B0022DA62164B174A9A6200
:1017B000144B0022DA60134B0122DA61114B002234
:1017C00083F830200F4B01225A610E4804F09EFB33
:1017D0000346002B01D001F025FB00233B600123D1
:1017E0007B600023BB603B461946064804F03CFD85
:1017F0000346002B01D001F015FB00BF1037BD469A
:1018000080BD00BF680D0020002001400100000FD6
:1018100080B58AB000AF786007F1140300221A6027
:101820005A609A60DA601A617B681B68174A9342B3
:1018300027D100233B61164B5B6C154A43F4807340
:101840005364134B5B6C03F480733B613B6900236F
:10185000FB600F4B1B6B0E4A43F0010313630C4BF1
:101860001B6B03F00103FB60FB6813237B61032305
:10187000BB610023FB6107F114031946054805F01D
:10188000B5F800BF2837BD4680BD00BF002001402D
:10189000003802400000024080B58AB000AF07F176
:1018A000140300221A605A609A60DA601A610023F9
:1018B0003B61474B1B6B464A43F080031363444B29
:1018C0001B6B03F080033B613B690023FB60404BD3
:1018D0001B6B3F4A43F0040313633D4B1B6B03F048
:1018E0000403FB60FB680023BB60394B1B6B384A69
:1018F00043F001031363364B1B6B03F00103BB6022
:10190000BB6800237B60324B1B6B314A43F0020300
:1019100013632F4B1B6B03F002037B607B68002279
:1019200020212C4805F0FEF900224FF480512A486E
:1019300005F0F8F900224FF40141284805F0F2F9CA
:1019400004237B61264BBB610023FB6107F1140379
:101950001946204805F04AF810237B610023BB613B
:101960000023FB6107F1140319461A4805F03EF8FD
:1019700020237B610123BB610023FB6100233B62C9
:1019800007F114031946134805F030F84FF480535B
:101990007B610123BB610023FB6100233B6207F1F4
:1019A000140319460C4805F021F84FF401437B61FC
:1019B0000123BB610023FB6100233B6207F1140399
:1019C0001946064805F012F800BF2837BD4680BD0D
:1019D00000380240000802400004024000000240BB
:1019E0000000111080B500AF124B134A1A60114B62
:1019F000124A5A600F4B00229A600E4B0022DA60A6
:101A00000C4B4FF480421A610A4B00225A61094B79
:101A100000229A61074B0022DA61064B00221A620B
:101A2000044805F099F90346002B01D001F0FAF9BA
:101A300000BF80BD040E002000540040A0860100BD
:101A400080B500AF124B134A1A60114B124A5A600C
:101A50000F4B00229A600E4B0022DA600C4B4FF4C1
:101A600080421A610A4B00225A61094B00229A6196
:101A7000074B0022DA61064B00221A62044805F087
:101A80006BF90346002B01D001F0CCF900BF80BDFB
:101A9000B00D002000580040A086010080B58CB039
:101AA00000AF786007F11C0300221A605A609A6048
:101AB000DA601A617B681B68324A93422CD100239A
:101AC000BB61314B1B6B304A43F0020313632E4B57
:101AD0001B6B03F00203BB61BB69C023FB611223D4
:101AE0003B6201237B620323BB620423FB6207F199
:101AF0001C031946254804F079FF00237B61224B23
:101B00001B6C214A43F4001313641F4B1B6C03F43A
:101B100000137B617B6931E07B681B681C4A934240
:101B20002CD100233B61184B1B6B174A43F0020377
:101B30001363154B1B6B03F002033B613B694FF4CE
:101B40004063FB6112233B6201237B620323BB6280
:101B50000423FB6207F11C0319460C4804F046FFFE
:101B60000023FB60084B1B6C074A43F4800313649B
:101B7000054B1B6C03F48003FB60FB6800BF303730
:101B8000BD4680BD005400400038024000040240C1
:101B90000058004080B582B000AF78607B68094A89
:101BA000934201D1FFF792FA7B68074A934204D12E
:101BB00001220649044809F0A2F800BF0837BD46D3
:101BC00080BD00BF801500203C1500209013002030
:101BD00080B582B000AF78607B68622B12DC7B68D6
:101BE00013F1090F0EDB7B68092B05DC7A680A49C3
:101BF0000A4811F0A3F80AE07A680949074811F089
:101C00009DF804E063220649044811F097F8034B5D
:101C100018460837BD4680BDB87801088C130020EF
:101C2000BC78010880B487B000AF7861396187ED76
:101C3000030AC7ED020A87ED011A97ED017AD7ED85
:101C4000027A77EE676A97ED037AD7ED027A77EE3C
:101C5000677A86EEA77A7A693B69D31A07EE903ADB
:101C6000F8EEE77A27EE277A3B6907EE903AF8EE2E
:101C7000E77A77EE277AFDEEE77A17EE903A184684
:101C80001C37BD465DF8047B704700000000000073
:101C900080B582B000AF87ED010AD7ED017AF5EE8D
:101CA000C07AF1EE10FA16DB7868FEF74DFC5AA305
:101CB000D3E90023FEF712FF0346002B0BD097ED6C
:101CC000011ADFED570AB2EE080A00213220FFF7B1
:101CD000A9FF03469CE07868FEF736FC4EA3D3E9E3
:101CE0000023FEF70FFF0346002B14D0D7ED017A37
:101CF0009FED4C7AF4EEC77AF1EE10FA0BD597ED22
:101D0000011ADFED490A9FED490A33216420FFF7EC
:101D100089FF03467CE0D7ED017A9FED427AF4EE2D
:101D2000C77AF1EE10FA14DBD7ED017A9FED407A15
:101D3000F4EEC77AF1EE10FA0BD597ED011ADFED4C
:101D4000390A9FED3C0A65219620FFF76BFF034699
:101D50005EE0D7ED017A9FED367AF4EEC77AF1EEC8
:101D600010FA14DBD7ED017A9FED337AF4EEC77ADF
:101D7000F1EE10FA0BD597ED011ADFED2D0A9FED6C
:101D80002F0A9721C820FFF74DFF034640E0D7ED0B
:101D9000017A9FED297AF4EEC77AF1EE10FA15DB9D
:101DA000D7ED017A9FED267AF4EEC77AF1EE10FABC
:101DB0000CD597ED011ADFED200A9FED220AC9210B
:101DC0004FF49670FFF72EFF034621E0D7ED017A1E
:101DD0009FED1B7AF4EEC77AF1EE10FA16DBD7ED21
:101DE000017A9FED197AF4EEC77AF1EE10FA0DD56B
:101DF00097ED011ADFED120A9FED140A40F22D1142
:101E00004FF4FA70FFF70EFF034601E04FF4FA7348
:101E100018460837BD4680BD33333333333328404B
:101E20000000000000000E429A9941419A990D422B
:101E300000005E429A995D42008016436666164332
:101E400000807A4366667A430000FA433333FA43EC
:101E500080B584B002AF786039607B68002B09DD03
:101E6000012301930223009302230B227E211748B2
:101E700001F0DAFD7B68032B09DD012301930423C4
:101E8000009302230B227B21104801F0CDFD7B68DB
:101E9000042B09DD012301930623009302230B2267
:101EA00078210A4801F0C0FD7B68052B09DD01237C
:101EB00001930823009302230B227521034801F0AC
:101EC000B3FD00BF0837BD4680BD00BF9C030020A6
:101ED00080B584B002AF87ED010A7868FEF734FB65
:101EE00049A3D3E90023FEF7F9FD0346002B06D0F2
:101EF0004F4B1B8803F001039BB2002B7DD00123C5
:101F00000193082300930B2300227521494801F017
:101F10003BFE012301930223009302230322742139
:101F2000444801F081FD7868FEF70EFB36A3D3E943
:101F30000023FEF7F1FD0346002B09D00123019396
:101F400004230093022302227F213A4801F06CFD12
:101F50007868FEF7F9FA2EA3D3E90023FEF7DCFD3B
:101F60000346002B09D0012301930423009302238D
:101F700002227D212F4801F057FD7868FEF7E4FA30
:101F800025A3D3E90023FEF7C7FD0346002B09D0A4
:101F90000123019304230093022302227B2125487D
:101FA00001F042FD7868FEF7CFFA1DA3D3E90023C4
:101FB000FEF7B2FD0346002B09D001230193042351
:101FC00000930223022279211A4801F02DFD78683E
:101FD000FEF7BAFA14A3D3E90023FEF79DFD0346EA
:101FE000002B0BD001230193042300930223022230
:101FF0007721104801F018FD00E000BF0837BD460A
:1020000080BD00BFAFF300809A99999999990940D2
:10201000CDCCCCCCCCCC0A409A99999999990B40CB
:102020006666666666660C403333333333330D4081
:10203000940300209C03002080B500AF094B0A4A9E
:102040000A490B4802F072F9094803F0FDFD00212E
:10205000074803F008FE0221054802F017FF00BF01
:1020600080BD00BF0D370008413700080C940108FF
:102070009C03002080B58CB002AF884B5B687B620C
:1020800097ED090AFFF704FE07EE900AF8EEE77AEB
:10209000C7ED087A4923FB61FB6907EE903AB8EE79
:1020A000E77AD7ED087A67EE277A17EE900AFEF7FF
:1020B0004BFA4FF000027A4BFEF7C8FB02460B4684
:1020C000104619464FF000024FF08043FEF7DEF84D
:1020D00002460B4610461946FEF73EFD0346BB611D
:1020E000704B93F838347B616F4B1B683B616F48D2
:1020F00001F08AFE6D4801F0FCFD6D496B4802F06D
:10210000ABFED7ED097AFDEEE77A17EE900AFFF7FE
:102110005FFD034600223221644802F0FBFD654961
:10212000624802F099FED7ED097A9FED637AF4EEEA
:10213000C77AF1EE10FA1AD5D7ED097AB2EE047A21
:1021400067EE877AFDEEE77A17EE901A5B4B83FB1A
:1021500001239A10CB17D21A13469B0013445B003D
:10216000CA1A3B465649184610F0E8FD05E03B46C2
:1021700009225349184610F0E1FD3B460E220E217C
:102180004A4802F0C7FD4F4B1B78012B11D14E4935
:10219000464802F061FE4D4B1B8803F001039BB2E1
:1021A000002B40D14A4B00226821404802F0B2FD8A
:1021B00039E048493D4802F04FFE474B1B6818463E
:1021C000FEF7C2F902460B4643EC102B14F0BCFF9D
:1021D00053EC102B10461946FEF7BEFC034618467A
:1021E000FFF7F6FC034600224E21304802F092FD34
:1021F0003A4B1B681846FEF7A7F902460B4643EC1C
:10220000102B14F0A1FF53EC102B10461946FEF7CB
:10221000A3FC03461846FFF7DBFC034600226C21B3
:10222000224802F077FD2E49204802F015FE1D4B92
:10223000D3F8343419467869FFF70AFE97ED040A9B
:10224000FFF746FEFB69DAB26FF07F039B1AD9B243
:10225000FB69DBB201220192072200921B22134884
:1022600001F092FCBB69DAB26FF07F039B1AD9B21E
:10227000BB69DBB201220192052200921B220B48AE
:1022800001F0D2FB094801F0D3FD0346002B7FF497
:1022900031AF00BF00BF2837BD4680BD200D0020F4
:1022A00000407F40B0080020E01200209C03002086
:1022B0002C920108BC8F01080000C8426766666660
:1022C000C078010800000020348301089403002036
:1022D000C4780108DC900108D01200205C0E0020B8
:1022E0005C7B010880B500AF114801F08DFD1048FE
:1022F00001F0FFFC0F490E4802F0AEFD0E4B142218
:102300007F210B4802F006FD0C49094802F0A4FDAC
:102310000B4B04227F21064802F0FCFC044801F02C
:1023200087FD0346002BE2D100BF00BF80BD00BF88
:102330009C03002034830108CC7801085C7B0108F1
:10234000D878010880B582B002AF144801F05CFD76
:10235000124801F06DFD4FF47A7003F0B3FD0123D4
:102360000193082300930B23002275210B4801F0F1
:102370000BFC012301930223009302230322742107
:10238000064801F051FB054801F052FD4FF47A7008
:1023900003F098FD00BFBD4680BD00BF9C03002038
:1023A00080B586B002AF4AF27C233B8107F1080278
:1023B0004FF0FF3300930223E0212C4804F010FE7D
:1023C0000346FB73FB7B002B02D04FF0FF3349E049
:1023D0003A464FF0FF3300930623E021234804F0F0
:1023E000FDFE0346FB73FB7B002B02D04FF0FF3357
:1023F00038E03B461846FFF74DF803461A46BB78CF
:102400009A4202D04FF0FF332CE03B781B021AB205
:102410007B781BB213431BB2BB81BB8907EE903A9A
:10242000F8EEE77A9FED127A67EE877A9FED117AE0
:1024300077EEC77A104BC3ED007AFB781B021AB215
:102440003B791BB213431BB2BB81BB8907EE903AA9
:10245000F8EEE77A9FED097A67EE877A084BC3EDCD
:10246000007A012318461037BD4680BD040E0020B7
:1024700000002F3B00003442580E00200000C83AF4
:10248000B0130020B0B588B000AF87ED030AC7EDE8
:10249000020A87ED011A354BFB61354BBB61354BA9
:1024A0007B6197ED027AD7ED017A77EE277AC7ED57
:1024B000047A97ED057AD7ED047A37EE277AD7EDCF
:1024C000037A67EE277A17EE900AFEF73DF8044686
:1024D0000D4697ED067AD7ED027A77EE277AD7ED9B
:1024E000026A86EEA77AD7ED066AD7ED047A76EE11
:1024F000A76A97ED046AC6EE267A37EE677AD7EDBB
:10250000077A67EE277A17EE900AFEF71DF8024663
:102510000B4643EC102B14F05FFE53EC102B2046BF
:102520002946FEF769F802460B4614461D4697ED0C
:10253000057AD7ED027A77EE277A17EE900AFEF742
:1025400003F802460B4620462946FEF77FF902466D
:102550000B4610461946FEF747FB034607EE903A36
:10256000B0EE670A2037BD46B0BD00BFC3F58C4151
:10257000B81E73433393894380B483B000AF87EDB3
:10258000010AC7ED000A97ED017AD7ED007A77EEE0
:10259000277AB0EE670A0C37BD465DF8047B7047BA
:1025A00080B500AF0021114807F0F4FC002110486D
:1025B00007F0F0FC04210E4807F0ECFC08210C4861
:1025C00007F0E8FC0C210A4807F0E4FC0821094860
:1025D00007F0E0FC64226421642000F029F8642202
:1025E0006421642000F008F800BF80BDAC14002016
:1025F000F41400206414002080B485B000AFF860AB
:10260000B9607A60084B1B68FA685A63074B1B680D
:10261000BA685A63054B1B687A689A6300BF14371F
:10262000BD465DF8047B7047AC140020F414002014
:1026300080B485B000AFF860B9607A60084B1B6861
:10264000FA68DA63064B1B68BA681A64054B1B68A4
:102650007A68DA6300BF1437BD465DF8047B7047C3
:10266000F41400206414002080B500AF134BD3EDA8
:10267000017AB3EE0E7AF4EEC77AF1EE10FA05DDC8
:10268000642264210020FFF7D3FF14E00B4BD3ED4D
:10269000017AB2EE047AF4EEC77AF1EE10FA05DDB3
:1026A000642200210020FFF7C3FF04E06422002120
:1026B0006420FFF7BDFF00BF80BD00BF200D0020DC
:1026C00080B500AF642264216420FFF7B1FF00BF32
:1026D00080BD000080B588B002AF1B4B93F8353049
:1026E0001946194B93F836301A46174B93F8373082
:1026F000019300920B46154A1549164810F01EFB2F
:10270000381D144B144A154910F018FB391D4FF0B1
:10271000FF331322124808F060FA322003F0D2FB94
:1027200000224FF480710F4804F0FCFA322003F0CD
:10273000C9FB01224FF480710A4804F0F3FA00BF8C
:102740001837BD4680BD00BF200D0020F07801087D
:10275000FC780108600E0020087901081079010852
:102760003C1500200000024080B584B002AF002379
:102770007B6021E0144B93F835301946124B93F8E7
:1027800036301846104B93F837301A467B68019361
:10279000009203460A460D490D4810F0CFFA012277
:1027A0000B490C480EF0C2FA0346FB7009480EF0C4
:1027B0006EFE7B6801337B60FB78002BDAD000BFB4
:1027C00000BF0837BD4680BD200D002018790108E4
:1027D000D41200206C0E002080B584B000AF786069
:1027E0000B46FB703222124912480EF09FFA034644
:1027F000002B02D04FF0FF3316E0FA7807F10C03FC
:1028000079680C480EF050FC0346002B02D04FF0C4
:10281000FF3309E007480EF03AFE0346002B02D0D2
:102820004FF0FF3300E0FB6818461037BD4680BD0F
:10283000D41200206C0E002080B5BEB000AF322252
:10284000224923480EF072FA0346002B02D04FF0C3
:10285000FF3337E007F1C8031E4A1F49184610F03E
:102860006DFA034687F8F73097F8F72007F1F00381
:1028700007F1C80116480EF017FC0346002B02D0E2
:102880004FF0FF331EE03B1D1449184610F056FA76
:10289000034687F8F73097F8F72007F1F003391D62
:1028A0000B480EF001FC0346002B02D04FF0FF3323
:1028B00008E007480EF0EBFD0346002B02D04FF076
:1028C000FF33FFE71846F837BD4680BDD41200201D
:1028D0006C0E0020480D0020287901084479010879
:1028E00080B500AF0E4803F055FB4FF0FF310C48A8
:1028F00003F022FC0A4803F0AAFC03469AB2094BF3
:102900001A80084B1B8807EE903AF8EEE77A9FEDA5
:10291000067A67EE877A054BC3ED007A00BF80BD6B
:10292000680D00209C1000208787933AE012002059
:102930002DE9F04F2DED048BD9B034AF03F050FAF0
:1029400000F008FAFEF7A8FFFFF74CF8FFF778F859
:1029500000F05CFFFEF70AFF00F094FC00F0EAFCD8
:1029600000F062FD00F064FA00F098FA00F078FFE1
:102970000EF014FE0AF072FA322003F0A3FAFFF709
:10298000AFFF322003F09EFAFFF756FB204BD3ED4A
:10299000007AB0EE067AF4EEC77AF1EE10FA02D5BC
:1029A000FFF7D0FCFCE7FFF79DFC01224FF480719C
:1029B000184804F0B7F9322003F084FAFEF76CFBF4
:1029C000322003F07FFAFFF7EBFD322003F07AFAB2
:1029D000FFF736F8322003F075FAFEF78FFD32204C
:1029E00003F070FAFEF744FE322003F06BFAFFF7B3
:1029F00071FEFEF725FE0122074908480EF050F946
:102A0000FFF7B2FEFFF718FFFEF79EFD0DE000BFD7
:102A1000E012002000000240287A0108A0100020E7
:102A2000642003F04FFAFEF78FFDB54BD3ED017A2A
:102A3000F5EE407AF1EE10FAF2D0322003F042FACD
:102A4000FFF7AEFCAF4BD3ED007AF9EE000AB0EE23
:102A5000670AFFF791FDF0EE407AAB4BC3ED007AC9
:102A6000AA4BD3ED007AA74B93ED007AB9EE001A8A
:102A7000F0EE470AB0EE670AFFF704FDF0EE407A89
:102A8000A34BC3ED007AFFF72BFF03F00FFA0346C9
:102A9000A04A1360A04B1B88C7F884309F4B03F5F6
:102AA000836393ED008B9D4B03F5856393ED009B52
:102AB0009A4BD3F83414C7F88010984B03F2544360
:102AC0001B681846FDF740FDC7E91E01934B03F54F
:102AD00088631B681846FDF737FDC7E91C018F4B5B
:102AE00093F83834FB668D4BD3F86844BC668B4B47
:102AF00003F58C631B681846FDF726FDC7E918012E
:102B0000844B1D68FD657E4B1B681846FDF71CFD58
:102B1000C7E914017A4B5B681846FDF715FDC7E954
:102B20001201774B9B681846FDF70EFDC7E91001AF
:102B3000734BDB681846FDF707FDC7E90E01714BC3
:102B40001B681846FDF700FDC7E90C016F4B1B68B9
:102B50001846FDF7F9FCC7E90A01694B1B691846DD
:102B6000FDF7F2FCC7E90801654B5B691846FDF704
:102B7000EBFCC7E90601624B9B691846FDF7E4FCD4
:102B8000C7E904015E4BDB691846FDF7DDFCC7E9C8
:102B900002015B4B1B6A1846FDF7D6FCC7E9000132
:102BA000574B5B6A1846FDF7CFFC82468B465C4B61
:102BB0001B681846FDF7C8FC80468946524B1B68C7
:102BC0001846FDF7C1FC04460D46514B1B681846DC
:102BD000FDF7BAFC4A4B93F835301E46484B93F844
:102BE00036301A46464B93F837303293319230964E
:102BF000CDE92E01CDE92C45CDE92A890023299381
:102C000000232893CDE926AB97ED007B8DED247B47
:102C100097ED027B8DED227B97ED047B8DED207B84
:102C200097ED067B8DED1E7B97ED087B8DED1C7B74
:102C300097ED0A7B8DED1A7B97ED0C7B8DED187B64
:102C400097ED0E7B8DED167B97ED107B8DED147B54
:102C500097ED127B8DED127B97ED147B8DED107B44
:102C6000FD6D0E9597ED187B8DED0C7BBC6E0B9476
:102C7000FC6E0A9497ED1C7B8DED087B97ED1E7B17
:102C80008DED067BD7F8801004918DED029B8DEDC4
:102C9000008BD7F884202349234810F04FF80346CF
:102CA00087F88F30FFF7E0FC97F88F3019461E4801
:102CB0000EF032FD97F88F309AB24FF0FF331A4979
:102CC0001A4807F08AFF97F88F3019461648FFF721
:102CD00083FD0346B3F1FF3F03D1154B01221A7068
:102CE00002E0134B00221A70FFF7EAFCFFF7C2F96B
:102CF000094B1B8801339AB2074B1A801DE000BFB5
:102D0000200D0020580E00205C0E0020B013002083
:102D1000D01200209803002094030020B008002067
:102D2000E01200202C7A0108E81200203C15002057
:102D3000000000200A2003F0C5F803F0B7F80246AF
:102D4000034B1B68D31AB3F57A7FF3D35CE600BF5D
:102D50009803002080B594B000AF07F12003302223
:102D6000002118460FF062F907F10C0300221A60E7
:102D70005A609A60DA601A610023BB60274B1B6CB3
:102D8000264A43F080531364244B1B6C03F080539A
:102D9000BB60BB6800237B60214B1B68204A43F467
:102DA000804313601E4B1B6803F480437B607B6889
:102DB00001233B624FF480337B620223BB634FF4F9
:102DC0008003FB6308233B6448237B640223BB64CA
:102DD0000323FB6407F12003184606F0D5F80346E9
:102DE000002B01D000F01EF80F23FB6002233B6193
:102DF00000237B614FF48053BB610023FB6107F12B
:102E00000C030221184606F037FB0346002B01D0C5
:102E100000F008F800BF5037BD4680BD00380240C2
:102E20000070004080B400AF72B600BFFEE7000043
:102E300080B500AF174B184A1A60164B4FF48272D8
:102E40005A60144B00229A60124B0022DA60114B38
:102E500000221A610F4B00225A610E4B4FF4007290
:102E60009A610C4B3022DA610A4B00221A62094B3C
:102E700000225A62074B00229A62064B0A22DA624B
:102E8000044806F0F3FC0346002B01D0FFF7CAFF0D
:102E900000BF80BD0C1400200030014080B500AFA1
:102EA000174B184A1A60164B4FF482725A60144B33
:102EB00000229A60124B0022DA60114B00221A6144
:102EC0000F4B00225A610E4B4FF400729A610C4B6B
:102ED0003022DA610A4B00221A62094B00225A6240
:102EE000074B00229A62064B0A22DA62044806F077
:102EF000BDFC0346002B01D0FFF794FF00BF80BD4F
:102F0000B41300200038004080B58CB000AF78606A
:102F100007F11C0300221A605A609A60DA601A6195
:102F20007B681B68324A93422CD10023BB61314B32
:102F30005B6C304A43F4805353642E4B5B6C03F458
:102F40008053BB61BB6900237B612A4B1B6B294A01
:102F500043F002031363274B1B6B03F002037B61F7
:102F60007B693823FB6102233B6200237B620323DE
:102F7000BB620523FB6207F11C0319461E4803F0E0
:102F800035FD31E07B681B681C4A93422CD100233D
:102F90003B61184B1B6C174A43F480431364154B79
:102FA0001B6C03F480433B613B690023FB60114BC6
:102FB0001B6B104A43F0020313630E4B1B6B03F0B1
:102FC0000203FB60FB684FF46043FB6102233B623A
:102FD00000237B620323BB620523FB6207F11C0312
:102FE0001946054803F002FD00BF3037BD4680BDDD
:102FF0000030014000380240000402400038004028
:1030000080B483B000AF00237B60104B5B6C0F4A31
:1030100043F4804353640D4B5B6C03F480437B604B
:103020007B6800233B60094B1B6C084A43F08053CC
:103030001364064B1B6C03F080533B603B6800BF7E
:103040000C37BD465DF8047B704700BF0038024076
:1030500080B400AFFEE780B400AFFEE780B400AFFD
:10306000FEE780B400AFFEE780B400AFFEE780B4B7
:1030700000AF00BFBD465DF8047B704780B400AF71
:1030800000BFBD465DF8047B704780B400AF00BF51
:10309000BD465DF8047B704780B500AF02F0F2FEDC
:1030A00000BF80BD80B500AF024807F059FE00BFE9
:1030B00080BD00BF8015002080B500AF024804F03D
:1030C00030FF00BF80BD00BF082F002080B400AFDC
:1030D00001231846BD465DF8047B704780B582B079
:1030E00000AF786039600EF077FF034616221A6051
:1030F0004FF0FF3318460837BD4680BD80B582B01B
:1031000000AF78604FF0FF317868FFF7E7FFFEE728
:1031100080B586B000AFF860B9607A6000237B614B
:103120000AE0AFF300800146BB685A1CBA60CAB21D
:103130001A707B6901337B617A697B689A42F0DBA4
:103140007B6818461837BD4680BD80B586B000AF95
:10315000F860B9607A6000237B6109E0BB685A1CA3
:10316000BA601B781846AFF300807B6901337B613E
:103170007A697B689A42F1DB7B6818461837BD464E
:1031800080BD80B483B000AF78604FF0FF33184645
:103190000C37BD465DF8047B704780B483B000AF48
:1031A000786039603B684FF400525A60002318463B
:1031B0000C37BD465DF8047B704780B483B000AF28
:1031C0007860012318460C37BD465DF8047B7047D4
:1031D00080B485B000AFF860B9607A60002318460B
:1031E0001437BD465DF8047B7047000080B586B09B
:1031F00000AF7860144A154BD31A7B617B693B6141
:10320000134B1B68002B02D1114B124A1A60104B52
:103210001A687B6813443A699A4207D20EF0DCFEC2
:1032200003460C221A604FF0FF3309E0084B1B687D
:10323000FB60074B1A687B681344054A1360FB6800
:1032400018461837BD4680BD00000220000400006B
:10325000240400202033002080B400AF084BD3F8B2
:103260008830074A43F47003C2F88830044B4FF0AB
:1032700000629A6000BFBD465DF8047B704700BFE6
:1032800000ED00E080B58AB000AF07F12003002216
:103290001A605A603B1D00221A605A609A60DA6018
:1032A0001A615A619A61224B4FF080421A60204B9A
:1032B00040F67F425A601E4B00229A601C4B6322EC
:1032C000DA601B4B00221A61194B00229A611848E0
:1032D00006F011FE0346002B01D0FFF7A3FD0023EB
:1032E0003B6200237B6207F120031946104807F078
:1032F000ABFB0346002B01D0FFF794FD60237B60FE
:103300000023BB600023FB6000237B613B1D002288
:103310001946074806F006FF0346002B01D0FFF7C9
:1033200081FD034800F04EF900BF2837BD4680BD3F
:10333000AC14002080B58AB000AF07F12003002252
:103340001A605A603B1D00221A605A609A60DA6067
:103350001A615A619A61324B324A1A60304B40F618
:103360007F425A602E4B00229A602D4B6322DA6016
:103370002B4B00221A612A4B00229A61284806F042
:10338000BAFD0346002B01D0FFF74CFD00233B6242
:1033900000237B6207F120031946214807F054FB04
:1033A0000346002B01D0FFF73DFD60237B60002327
:1033B000BB600023FB6000237B613B1D002219469C
:1033C000174806F0AFFE0346002B01D0FFF72AFD99
:1033D0003B1D04221946124806F0A4FE0346002BAA
:1033E00001D0FFF71FFD3B1D082219460C4806F0CF
:1033F00099FE0346002B01D0FFF714FD3B1D0C2264
:103400001946074806F08EFE0346002B01D0FFF751
:1034100009FD034800F0D6F800BF2837BD4680BD3F
:10342000F41400200004004080B58EB000AF07F116
:10343000280300221A605A609A60DA6007F12003BC
:1034400000221A605A603B1D00221A605A609A607E
:10345000DA601A615A619A612C4B2D4A1A602B4B23
:1034600047F6FF425A60294B00229A60274B0922F7
:10347000DA60264B00221A61244B00229A6123480D
:1034800006F0EAFC0346002B01D0FFF7CBFC4FF41B
:103490008053BB6207F1280319461C4806F000FF61
:1034A0000346002B01D0FFF7BDFC184806F023FDB2
:1034B0000346002B01D0FFF7B5FC20233B6200231D
:1034C0007B6207F120031946104807F0BDFA034656
:1034D000002B01D0FFF7A6FC60237B600023BB60BC
:1034E0000023FB6000237B613B1D0822194607482F
:1034F00006F018FE0346002B01D0FFF793FC0348AB
:1035000000F060F800BF3837BD4680BD641400206D
:103510000008004080B485B000AF78607B681B680D
:10352000B3F1804F0ED10023FB60134B1B6C124A8A
:1035300043F001031364104B1B6C03F00103FB60A9
:10354000FB6812E07B681B680C4A93420DD1002394
:10355000BB60094B1B6C084A43F002031364064B23
:103560001B6C03F00203BB60BB6800BF1437BD4691
:103570005DF8047B704700BF003802400004004043
:1035800080B485B000AF78607B681B680B4A9342BB
:103590000DD10023FB600A4B1B6C094A43F0040366
:1035A0001364074B1B6C03F00403FB60FB6800BF54
:1035B0001437BD465DF8047B704700BF000800402B
:1035C0000038024080B58CB000AF786007F11C0372
:1035D00000221A605A609A60DA601A617B681B6880
:1035E000B3F1804F1ED10023BB61434B1B6B424A9A
:1035F00043F001031363404B1B6B03F00103BB61FA
:10360000BB692023FB6102233B6200237B62002312
:10361000BB620123FB6207F11C031946374803F024
:10362000E5F965E07B681B68354A93423CD100238D
:103630007B61314B1B6B304A43F0010313632E4B0C
:103640001B6B03F001037B617B6900233B612A4B09
:103650001B6B294A43F002031363274B1B6B03F0D8
:1036600002033B613B69C023FB6102233B620023F1
:103670007B620023BB620223FB6207F11C03194635
:103680001E4803F0B3F90323FB6102233B620023CE
:103690007B620023BB620223FB6207F11C03194615
:1036A000184803F0A3F923E07B681B68164A93428D
:1036B0001ED10023FB60104B1B6B0F4A43F002032B
:1036C00013630D4B1B6B03F00203FB60FB684FF4AD
:1036D0008073FB6102233B6200237B620023BB6299
:1036E0000223FB6207F11C031946064803F07EF92A
:1036F00000BF3037BD4680BD0038024000000240A8
:1037000000040040000402400008004080B584B07E
:1037100000AFF8607B600B46FB721346BB72FB7A0E
:10372000282B06D0292B05D1BB7A184602F0CAFBFC
:1037300000E000BF012318461037BD4680BD0000E1
:1037400080B588B002AFF8607B600B46FB72134611
:10375000BB72FB7A143B0C2B47D801A252F823F022
:10376000EF370008EB370008EB3700089537000803
:10377000C5370008CD370008EB370008EB370008E5
:10378000EB370008EB370008EB370008EB37000891
:10379000EF3700087B687B6110E0194B1B785A1CDF
:1037A000D1B2174A11701A467B691978154B995492
:1037B0007B6901337B61BB7A013BBB72BB7A002B17
:1037C000EBD117E00E4B00221A7013E00C4B1B7864
:1037D0009BB2642200920B4A78210B4803F000FC54
:1037E0000346002B05D0002305E0002303E000BFC3
:1037F00000E000BF012318461837BD4680BD00BF5A
:10380000280400202C040020B00D002080B500AF5B
:10381000114B124A1A60104B4FF416525A600E4B5D
:1038200000229A600C4B0022DA600B4B00221A61D6
:10383000094B0C225A61084B00229A61064B002268
:10384000DA61054807F07CF90346002B01D0FFF749
:10385000E9FA00BF80BD00BF3C1500200010014008
:1038600080B500AF114B124A1A60104B4FF416523C
:103870005A600E4B00229A600C4B0022DA600B4B10
:1038800000221A61094B0C225A61084B00229A61EE
:10389000064B0022DA61054807F052F90346002B77
:1038A00001D0FFF7BFFA00BF80BD00BF8015002028
:1038B0000044004080B58CB000AF786007F11C0375
:1038C00000221A605A609A60DA601A617B681B688D
:1038D000364A93422DD10023BB61354B5B6C344A91
:1038E00043F010035364324B5B6C03F01003BB6175
:1038F000BB6900237B612E4B1B6B2D4A43F00103F8
:1039000013632B4B1B6B03F001037B617B694FF44B
:10391000C063FB6102233B6200237B620323BB6223
:103920000723FB6207F11C031946224803F05EF8E7
:1039300038E07B681B68204A934233D100233B6107
:103940001B4B1B6C1A4A43F400331364184B1B6C5B
:1039500003F400333B613B690023FB60144B1B6B9A
:10396000134A43F001031363114B1B6B03F0010374
:10397000FB60FB680C23FB6102233B6200237B623C
:103980000323BB620723FB6207F11C0319460948A6
:1039900003F02CF800220021262002F05EFF2620F2
:1039A00002F077FF00BF3037BD4680BD00100140F8
:1039B00000380240000002400044004080B584B05E
:1039C00002AF7860084611461A460346FB700B4664
:1039D000BB7013467B70FA787B781344D8B2BA7800
:1039E0003B7C1344DBB2BA78F978009303467868DD
:1039F00001F0E6FB0346002B12D00DE07B78BA788D
:103A0000F97800200090786801F0BFFABB780133A4
:103A1000BB703B7C013B3B743B7C002BEED100E058
:103A200000BF0837BD4680BD80B586B002AF786064
:103A3000084611461A460346FB700B46BB701346F8
:103A40007B70FA787B781344D8B2BA783B7E134403
:103A5000DBB2BA78F97800930346786801F0B0FBDE
:103A60000346002B00F08C80FB78FB73FA7B3B7FD6
:103A70001344FB73BB78BB73BA7B3B7F1344BB73AC
:103A8000FB787B737A7B7B7813447B737A7B3B7FF9
:103A9000D31A7B737B7B013B7B73BB783B733A7B95
:103AA0003B7E13443B733A7B3B7FD31A3B733B7B98
:103AB000013B3B733B7FBA7BF97B02200090786827
:103AC00000F0ECFB3B7FBA7B797B012000907868AB
:103AD00000F0E4FB3B7F3A7BF97B042000907868A0
:103AE00000F0DCFB3B7F3A7B797B08200090786814
:103AF00000F0D4FB7B78FB72FA7A3B7FD31AFB721F
:103B0000FA7A3B7FD31AFB72FB7B0133FB73BB7BDF
:103B10000133BB73FB7A022B18D9FB7A023BFB7291
:103B20003B7F0133DBB2F87ABA78F97B0093034626
:103B30007868FFF743FF3B7F0133DBB2F87A3A7BCB
:103B4000F97B009303467868FFF738FF3B7EBB7232
:103B5000BA7A3B7FD31ABB72BA7A3B7FD31ABB7255
:103B6000BB7A022B0DD9BB7A023BBB727878BA7B49
:103B7000F978BB7A009303467868FFF71FFF00E0EF
:103B800000BF1037BD4680BD80B586B002AF7860FB
:103B9000084611461A460346FB700B46BB70134697
:103BA0007B70FA787B781344D8B2BA783B7E1344A2
:103BB000DBB2BA78F97800930346786801F000FB2D
:103BC0000346002B00F09180FB78FB73FA7B3B7F70
:103BD0001344FB73BB78BB73BA7B3B7F1344BB734B
:103BE000FB787B737A7B7B7813447B737A7B3B7F98
:103BF000D31A7B737B7B013B7B73BB783B733A7B34
:103C00003B7E13443B733A7B3B7FD31A3B733B7B36
:103C1000013B3B733B7FBA7BF97B022000907868C5
:103C200000F01AFA3B7FBA7B797B0120009078681C
:103C300000F012FA3B7F3A7BF97B04200090786811
:103C400000F00AFA3B7F3A7B797B08200090786885
:103C500000F002FA7B78FB72FA7A3B7FD31AFB7290
:103C6000FA7A3B7FD31AFB723B7EBB72BA7A3B7FF8
:103C7000D31ABB72BA7A3B7FD31ABB72FB7B013378
:103C8000FB73BB7B0133BB73FB7A022B14D9FB7A2A
:103C9000023BFB723B7E013B3B76FB7ABA78F97BB9
:103CA000786801F0F5F9BA783B7E1344DAB2FB7A12
:103CB000F97B786801F0ECF9BB7A022B16D9BB7A54
:103CC000023BBB727B78013B7B70BB7ABA7BF97895
:103CD000786801F0F6F9FA787B781344D9B2BB7AA8
:103CE000BA7B786801F0EDF900E000BF1037BD46FF
:103CF00080BD80B584B000AF78607B681B681B7C9A
:103D0000FB607B6893F83C301A46FB6802FB03F3C8
:103D1000FB60FB68DB00FB607B689B6BFA68002143
:103D200018460EF083F900BF1037BD4680BD80B540
:103D300086B002AF78600B46FB701346BB707B68A1
:103D40001B681B7CFB73FB78BB817B689B6BBB6038
:103D5000FB7B9BB2BA8912FB03F3BB81BB89DB00FF
:103D6000BB81BB89BA681344BB60F97BBA78BB6876
:103D700000930B460021786801F035FF00BF103733
:103D8000BD4680BD80B584B000AF78600023FB7372
:103D90007B6893F83C307B737B6893F83D30BB7352
:103DA0007B681B685B7C3B73BA7BFB7B194678683E
:103DB000FFF7BDFFFB7B0133FB73BB7B0133BB73A1
:103DC000FA7B7B7B9A4203D2BA7B3B7B9A42EBD352
:103DD00000BF1037BD4680BD80B582B000AF7860AF
:103DE0000B46FB707B68FA7883F83D207B685B6B41
:103DF0001B68786898477B685B6B5B687868984756
:103E000000BF0837BD4680BD80B582B000AF786086
:103E10007B6893F88730002B02D07868FFF769FF42
:103E200000217868FFF7D8FF00BF0837BD4680BD86
:103E300080B584B000AF78607868FFF7A3FF7B6837
:103E400093F83D30FB737B6893F83C20FB7B134475
:103E5000FB737B681B685B7CFA7B9A4204D37868AF
:103E600001F012FF00230DE07B6893F88730002BF0
:103E700002D07868FFF73DFFFB7B19467868FFF7B3
:103E8000ABFF012318461037BD4680BD80B582B018
:103E900000AF7860084611461A460346FB700B4691
:103EA000BB7013467B703B7D03F00103002B17D0E2
:103EB0007A78FB781344D9B23A7CBB78D31ADBB258
:103EC0001A46786801F016F97A78BB781344D9B2AB
:103ED0003A7CFB78D31ADBB21A46786801F00AF90B
:103EE0003B7D03F00203002B17D07A78FB78D31ABE
:103EF000D9B23A7CBB78D31ADBB21A46786801F0A3
:103F0000F9F87A78BB78D31AD9B23A7CFB78D31A0D
:103F1000DBB21A46786801F0EDF83B7D03F0080348
:103F2000002B17D07A78FB781344D9B23A7CBB784F
:103F30001344DBB21A46786801F0DCF87A78BB7873
:103F40001344D9B23A7CFB781344DBB21A46786842
:103F500001F0D0F83B7D03F00403002B17D07A78F2
:103F6000FB78D31AD9B23A7CBB781344DBB21A4639
:103F7000786801F0BFF87A78BB78D31AD9B23A7C66
:103F8000FB781344DBB21A46786801F0B3F800BF3F
:103F90000837BD4680BD80B586B002AF7860084660
:103FA00011461A460346FB700B46BB7013467B70E6
:103FB0000123FB73FA7B7B78D31ADBB2FB730123FB
:103FC000BB7300237B737A7B7B78D31ADBB27B7362
:103FD0007B7B5B00DBB27B7300233B737B78FB72E4
:103FE000F878FA7A397B3B7E0193BB7800930346DD
:103FF0007868FFF74BFF26E097F90F30002B0BDBBB
:10400000FB7A013BFB727B7B0233DBB27B73FA7B77
:104010007B7B1344DBB2FB733B7B01333B73BB7B8A
:104020000233DBB2BB73FA7BBB7B1344DBB2FB73A3
:10403000F878FA7A397B3B7E0193BB78009303468C
:104040007868FFF723FF3A7BFB7A9A42D4D300BF0C
:1040500000BF1037BD4680BD90B585B002AF786017
:10406000084611461A460346FB700B46BB701346C2
:104070007B70FA787B78D31AD9B2BA787B78D31A66
:10408000D8B2FA787B781344DBB20133DCB2BA7869
:104090007B781344DBB20133DBB200932346024644
:1040A000786801F08DF80346002B09D07878BA784B
:1040B000F9783B7E009303467868FFF76CFF00E0D9
:1040C00000BF0C37BD4690BD80B582B000AF7860B0
:1040D000084611461A460346FB700B46BB70134652
:1040E0007B703B7D03F00103002B1BD07A78FB78BB
:1040F0001344D9B23A7CBB78D31ADAB2BB78013315
:10410000DBB2786800F0DDFF7A78BB781344D9B26F
:104110003A7CFB78D31ADAB2FB780133DBB27868E9
:1041200000F0CFFF3B7D03F00203002B1BD07A7819
:10413000FB78D31AD9B23A7CBB78D31ADAB2BB78FF
:104140000133DBB2786800F0BCFF7A78BB78D31A11
:10415000D9B23A7CFB78D31ADAB2FB780133DBB2FE
:10416000786800F0AEFF3B7D03F00803002B15D00C
:104170007A78FB781344D9B2BB780133DBB23A7C4E
:10418000786800F09EFF7A78BB781344D9B2FB7848
:104190000133DBB23A7C786800F093FF3B7D03F09B
:1041A0000403002B15D07A78FB78D31AD9B2BB78E8
:1041B0000133DBB23A7C786800F083FF7A78BB7811
:1041C000D31AD9B2FB780133DBB23A7C786800F0BD
:1041D00078FF00BF0837BD4680BD80B586B002AF0E
:1041E0007860084611461A460346FB700B46BB70C2
:1041F00013467B700123FB73FA7B7B78D31ADBB207
:10420000FB730123BB7300237B737A7B7B78D31A08
:10421000DBB27B737B7B5B00DBB27B7300233B7386
:104220007B78FB72F878FA7A397B3B7E0193BB7816
:10423000009303467868FFF747FF26E097F90F30B1
:10424000002B0BDBFB7A013BFB727B7B0233DBB287
:104250007B73FA7B7B7B1344DBB2FB733B7B0133C9
:104260003B73BB7B0233DBB2BB73FA7BBB7B134478
:10427000DBB2FB73F878FA7A397B3B7E0193BB782B
:10428000009303467868FFF71FFF3A7BFB7A9A4258
:10429000D4D300BF00BF1037BD4680BD90B585B0F8
:1042A00002AF7860084611461A460346FB700B467B
:1042B000BB7013467B70FA787B78D31AD9B2BA7880
:1042C0007B78D31AD8B2FA787B781344DBB2013307
:1042D000DCB2BA787B781344DBB20133DBB20093F3
:1042E00023460246786800F06BFF0346002B09D096
:1042F0007878BA78F9783B7E009303467868FFF7C0
:104300006CFF00E000BF0C37BD4690BD80B483B0A9
:1043100000AF78607B6804221A70034B18460C3794
:10432000BD465DF8047B70474C04002080B588B022
:1043300002AFF860B9607A603B603B6800937B68CD
:104340000B4A0C49F86801F003FD07F11303184606
:10435000FFF7DCFF7861FA7CBB680093064B796954
:10436000F86801F016F800BF1837BD4680BD00BFE1
:1043700099580008055B00081752000880B483B004
:1043800000AF78600B46FB70FB787A6813447B6063
:104390007B681B7818460C37BD465DF8047B704778
:1043A00080B485B000AF78600B46FB70FB787A680C
:1043B00013447B607B681B78FB817B6801337B60E7
:1043C000FB891B02FB817B681B789AB2FB89134433
:1043D000FB81FB8918461437BD465DF8047B7047A6
:1043E00080B582B000AF7860396000213868FFF78F
:1043F000C5FF03461A467B681A7001213868FFF72B
:10440000BDFF03461A467B685A7002213868FFF7E1
:10441000B5FF03461A467B689A7003213868FFF798
:10442000ADFF03461A467B68DA7004213868FFF74F
:10443000A5FF03461A467B681A7105213868FFF705
:104440009DFF03461A467B685A7106213868FFF7BC
:1044500095FF03461A467B689A7107213868FFF773
:104460008DFF03461A467B68DA7108213868FFF72A
:1044700085FF03461A467B681A7209213868FFF7E0
:104480007DFF03465AB27B685A720A213868FFF7EB
:1044900075FF03465AB27B689A720B213868FFF7A2
:1044A0006DFF03465AB27B68DA720C213868FFF759
:1044B00065FF03465AB27B681A730D213868FFF70F
:1044C0005DFF03465AB27B685A730E213868FFF7C6
:1044D00055FF03465AB27B689A730F213868FFF77D
:1044E0004DFF03465AB27B68DA7310213868FFF734
:1044F00045FF03465AB27B681A7411213868FFF7EA
:104500004FFF03461A467B685A8213213868FFF72B
:1045100047FF03461A467B689A8215213868FFF7E1
:104520003FFF03461A467B68DA8200BF0837BD4664
:1045300080BD80B485B000AF78600B46FB707B68AF
:104540009B7A7B737B681B681B78FB73FA7B7B7B96
:1045500042FA03F3FB737B7BBB73BA7BFB78134498
:10456000BB73BB7B072B1AD908233B733A7B7B7B3E
:10457000D31A3B737B681B685A1C7B681A607B6884
:104580001B681B781A463B7B02FA03F35AB297F971
:104590000F3013435BB2FB73BB7B083BBB73FB78F1
:1045A0004FF0FF3202FA03F3DBB2DB43DAB2FB7BFC
:1045B0001340FB737B68BA7B9A72FB7B18461437F7
:1045C000BD465DF8047B704780B584B000AF78606D
:1045D0000B46FB70FB7819467868FFF7AAFF034685
:1045E000FB730123BB73FB78013BFB7097F90E2033
:1045F000FB7802FA03F3BB73FA7BBB7BD31ADBB203
:10460000FB7397F90F3018461037BD4680BD90B444
:1046100082B000AF0446084611461A462346FB7195
:104620000346BB710B467B7113463B713B79022BF2
:1046300010D0022B13DC002B02D0012B05D00EE092
:104640007A79FB791344FB710EE0BA79FB79134454
:10465000FB7109E07B79FA79D31AFB7104E0BB792D
:10466000FA79D31AFB7100BFFB7918460837BD46AB
:1046700090BC704790B482B000AF04460846114623
:104680001A462346FB710346BB710B467B711346EA
:104690003B713B79022B10D0022B13DC002B02D094
:1046A000012B05D00EE0BA79FB791344FB710EE0C3
:1046B0007B79FA79D31AFB7109E0BB79FA79D31ABD
:1046C000FB7104E07A79FB791344FB7100BFFB793D
:1046D00018460837BD4690BC704780B588B002AF19
:1046E00078600B46FB701346BB707B6858333B61A8
:1046F000FB78FB753B6993F906307B753B6993F951
:1047000007303B753B6993F90830FB73FA7B7B7D7F
:10471000D31AFB73FB7BBB75FA7DFB7B9A4201D2FC
:10472000FB7DBB753B691B79BB733B695B797B7315
:1047300097F9151097F914203B699B7BB87BFFF71D
:1047400099FF0346BB7397F9151097F914203B693D
:104750009B7B787BFFF75BFF03467B73BB78002B6B
:104760000FD03B691A7B7B6883F886203B699B7B73
:10477000B87D7A7BB97B00930346786800F005FC2E
:1047800012E03B69DB7A002B0ED13B695A7B7B68D8
:1047900083F886203B699B7BB87D7A7BB97B00934D
:1047A0000346786800F0F1FBFA7DFB7B9A4209D35F
:1047B000FA7DFB7BD31AFB7500237B753B7D0133B0
:1047C0003B759FE700BF7A7DFB7D13447B7597F9AE
:1047D00015203B699A7197F914203B69DA7100BF83
:1047E0001837BD4680BD80B584B000AF78603960B1
:1047F0007B685833FB60FB683A681A60FB680022EC
:104800009A727B6893F86C301946F868FFF791FE4E
:1048100003465AB2FB681A727B6893F86D301946EA
:10482000F868FFF786FE03465AB2FB685A727B6847
:1048300093F88620FB681A73FB681B7B002B0CBF68
:1048400001230023DBB21A46FB685A7300BF1037FE
:10485000BD4680BD80B588B002AF786039607B68A6
:1048600058333B6139687868FFF7BDFF7B6893F880
:104870006130FB737B6893F86E3019463869FFF737
:10488000A3FE0346BB737B6893F86F301946386903
:10489000FFF79AFE03467B737B6893F870301946E6
:1048A0003869FFF791FE03463B733B6993F9083083
:1048B000002B40F3CF803B691879FA7B7B7B134454
:1048C000DBB25B42DBB25AB23B699B7B97F90E10BD
:1048D000FFF7D0FE03461A463B691A713B695879C7
:1048E000FA7B7B7B1344DBB25B42DBB25AB23B699F
:1048F0009B7B97F90E10FFF78AFE03461A463B6929
:104900005A713B691B79FB753B695B797B75FB7D54
:10491000BB757B7D3B753B699B7B032B52D801A20A
:1049200052F823F0354900084D4900087149000844
:10493000A14900083B6993F90830DAB2BB7D134402
:10494000BB75FA7B3B7D13443B753BE0FB7BFA7DFB
:10495000D31AFB75FB7D0133FB75BB7D0133BB7542
:104960003B6993F90830DAB23B7D13443B7529E08B
:104970003B6993F90830DBB2FA7DD31AFB75FB7DF6
:104980000133FB75BB7D0133BB75FB7B7A7DD31A8D
:104990007B757B7D01337B753B7D01333B7511E07E
:1049A000FA7BBB7D1344BB753B6993F90830DBB2DE
:1049B0007A7DD31A7B757B7D01337B753B7D01331B
:1049C0003B7500BFB87D7A7DF97D3B7D0093034642
:1049D000786800F0F5FB0346002B02D197F90C3004
:1049E0003AE03B6900229A713B690022DA717B68E8
:1049F00093F86A3019463869FFF79BFD0346FB724E
:104A00007B6893F86B3019463869FFF792FD0346CF
:104A1000BB72FB7A002219467868FFF75EFEBB7A0C
:104A2000012219467868FFF758FE01213869FFF71F
:104A300080FD0346002BECD13B6993F9073097F9D1
:104A40000F209A4200DDD2E700BF3B691A7B7B68EA
:104A500083F8862097F90C3018461837BD4680BD7C
:104A600080B586B000AF78600B467B807B681B6D9D
:104A70007B617B6917337B617B88FF2B2AD87B881E
:104A8000602B07D97B68B3F87C301A467B691344E6
:104A90007B6109E07B88402B06D97B68B3F87A30CC
:104AA0001A467B6913447B617B6901331B78002BB9
:104AB0004ED07B691B789BB27A889A4202D17B697F
:104AC000023349E07B6901331B781A467B69134442
:104AD0007B61E9E77B68B3F87E301A467B69134453
:104AE0007B617B693B6100213869FFF759FC034614
:104AF0001A467B6913447B6102213869FFF750FC39
:104B00000346FB813B6904333B61FA897B889A4207
:104B1000E9D37B691B78FB81FB891B02FB817B69E5
:104B200001331B789AB2FB891343FB81FB89002B6D
:104B300010D0FA897B889A4202D17B6903330BE05B
:104B40007B6902331B781A467B6913447B61E0E77B
:104B500000BF00E000BF002318461837BD4680BDE7
:104B600080B584B000AF7860084611461A46034607
:104B7000FB700B46BB7013463B800023FB737B68C6
:104B8000FA7883F85C207B68BA7883F85D203B88EC
:104B900019467868FFF764FFB860BB68002B05D042
:104BA000B9687868FFF756FE0346FB73FB7B18462F
:104BB0001037BD4680BD000080B582B000AF786080
:104BC000084611461A460346FB700B46BB70134657
:104BD0003B807B6893F86630032B33D801A252F8F0
:104BE00023F000BFF54B0008094C00081D4C0008DD
:104BF000314C00087B685B6D7868984703461A461D
:104C0000BB781344BB701DE07B685B6D7868984788
:104C100003461A46FB789B1AFB7013E07B685B6DBA
:104C20007868984703461A46BB789B1ABB7009E020
:104C30007B685B6D7868984703461A46FB78134497
:104C4000FB7000BF3B88BA78F9787868FFF788FF77
:104C5000034618460837BD4680BD00BF80B586B004
:104C600000AFF8607B600B46FB721346BB72F868BE
:104C700000F0E3FC0023FB75FB685B687A68127840
:104C80001146F86898470346BB82BB8A4FF6FF720D
:104C9000934238D07B6801337B60BB8A4FF6FE724B
:104CA0009342E9D0BB8ABA7AF97AF868FFF784FFB1
:104CB0000346FB74FB6893F86630032B1ED801A2F1
:104CC00052F823F0D54C0008DF4C0008E94C0008EE
:104CD000F34C0008FA7AFB7C1344FB720EE0BA7ABC
:104CE000FB7C1344BB7209E0FA7AFB7CD31AFB729B
:104CF00004E0BA7AFB7CD31ABB7200BFFA7DFB7C5E
:104D00001344FB75B8E700BFFB7D18461837BD4656
:104D100080BD00BF80B584B000AFF8607B600B46FB
:104D2000FB721346BB72FB68064A5A60BA7AF97A7C
:104D30007B68F868FFF792FF034618461037BD46B8
:104D400080BD00BF5756000880B483B000AF7860C4
:104D50007B681B6D002B5DD07B6893F975207B68A9
:104D600083F882207B6893F976207B6883F8832020
:104D70007B6893F88130002B4DD07B6893F88130AD
:104D8000012B1CD17B6893F982207B6893F97730E3
:104D90009A4205DA7B6893F977207B6883F8822052
:104DA0007B6893F983207B6893F978309A4232DDEF
:104DB0007B6893F978207B6883F883202BE07B68FD
:104DC00093F982301A467B6893F9723019467B68F2
:104DD00093F974300B449A420DDA7B6893F9723080
:104DE000DAB27B6893F97430DBB21344DBB25AB2A7
:104DF0007B6883F882207B6893F983207B6893F932
:104E000074309A4207DD7B6893F974207B6883F8DD
:104E1000832000E000BF0C37BD465DF8047B70477F
:104E200080B483B000AF7860002318460C37BD46CD
:104E30005DF8047B7047000080B483B000AF7860F9
:104E40007B68044A5A6500BF0C37BD465DF8047B99
:104E5000704700BF214E000880B582B000AF786077
:104E600039607B681B6D3A689A420BD07B683A6860
:104E70001A657B68683339681846FFF7B1FA7868B5
:104E8000FFF762FF00BF0837BD4680BD80B483B026
:104E900000AF78600B46FB707B68FA7883F8662079
:104EA00000BF0C37BD465DF8047B704780B487B007
:104EB00000AFF860B96011461A460B46FB71134605
:104EC000BB71FB681B78FB75FB7DBB75BB681A78F3
:104ED000BB7D1344BB75FA7DBB7D9A420BD9FA7D2D
:104EE000BB799A4205D2BB79BB75BB7D013BBB75D3
:104EF00001E0FB79FB75FA7DBB799A4201D300236F
:104F00001CE0BA7DFB799A4201D8002316E0FA7DB5
:104F1000FB799A4201D2FB79FB75BA7DBB799A4243
:104F200001D9BB79BB75FB68FA7D1A70BA7DFB7D30
:104F3000D31ABB75BB68BA7D1A70012318461C379B
:104F4000BD465DF8047B704790B585B002AF7860D0
:104F5000084611461A460346FB700B46BB701346C3
:104F60007B707B6893F84030BA78D31ABB707B684B
:104F70001C6B7878BA78F9783B7E009303467868A2
:104F8000A04700BF0C37BD4690BD90B585B002AFBD
:104F90007860084611461A460346FB700B46BB7004
:104FA00013467B707B6893F88030002B6DD07B7844
:104FB000002B6AD07B78012B18D93B7E022B09D1BC
:104FC000FA787B78D31ADBB2FB70FB780133DBB263
:104FD000FB700BE03B7E032B08D1BA787B78D31AA9
:104FE000DBB2BB70BB780133DBB2BB703B7E03F03E
:104FF00001033B763B7E002B19D17B6893F8472059
:10500000BB789A4238D87B6893F84820BB789A429C
:1050100034D97B6893F845207B6893F84630791C37
:10502000F81CFFF743FF0346002B19D12DE07B68E6
:1050300093F84520FB789A4222D87B6893F8462063
:10504000FB789A421ED97B6893F847207B6893F8D7
:105050004830791CB81CFFF729FF0346002B13D0FA
:105060007B685B6B9C68F978BA7878783B7E0093B4
:1050700003467868A04708E000BF06E000BF04E0F0
:1050800000BF02E000BF00E000BF0C37BD4690BD8E
:1050900080B584B002AF7860084611461A460346D0
:1050A000FB700B46BB7013467B707B78BA78F9783F
:1050B000002000907868FFF768FF00BF0837BD4602
:1050C00080BD80B584B002AF7860084611461A46AC
:1050D0000346FB700B46BB7013467B707B78BA7837
:1050E000F978012000907868FFF74FFF00BF08377C
:1050F000BD4680BD80B584B002AF78600B46FB70C2
:105100001346BB707B6893F84730BA789A421AD33B
:105110007B6893F84830BA789A4216D27B6893F845
:105120004530FA789A4212D37B6893F84630FA7881
:105130009A420ED2BA78F978002300930123786856
:10514000FFF723FF06E000BF04E000BF02E000BF5E
:1051500000E000BF0837BD4680BD90B482B000AF0C
:105160000446084611461A462346FB710346BB71A6
:105170000B467B7113463B717A79BB799A420DD20B
:105180003A79FB799A4201D9012314E07A793B7983
:105190009A4201D901230EE000230CE03A79FB7911
:1051A0009A4207D97A793B799A4201D9012302E0E0
:1051B000002300E0002318460837BD4690BC704726
:1051C00080B582B000AF7860084611461A460346A3
:1051D000FB700B46BB7013467B707B6893F84700EF
:1051E0007B6893F848103B7CBA78FFF7B6FF03461C
:1051F000002B01D100230AE07B6893F845007B680F
:1052000093F846107B78FA78FFF7A7FF0346184615
:105210000837BD4680BD80B487B000AF78600846CF
:1052200011461A460346FB700B46BB7013467B7053
:10523000BB78FB74FB7C03F00703FB7401233B7416
:105240003A7CFB7C02FA03F33B740023BB7400231B
:105250007B747B6893F88630012B01D83B7CBB7450
:105260007B6893F88630012B01D03B7C7B74BB7844
:10527000FB81FB8923F00703FB817B681B681B7C98
:105280009BB2FA8912FB03F3FB817B689B6B7B610A
:10529000FB897A6913447B61FB787A6913447B61EB
:1052A00097F82030002B17D17B691A78BB7C134309
:1052B000DAB27B691A707B691A787B7C5340DAB268
:1052C0007B691A707B6901337B617B78013B7B7062
:1052D0007B78002BE8D139E07B691A78BB7C1343DB
:1052E000DAB27B691A707B691A787B7C5340DAB238
:1052F0007B691A70FB7C0133FB74FB7C03F00703B2
:10530000FB747B78013B7B70FB7C002B15D17B68A9
:1053100093F83E301A467B6913447B617B6893F8AF
:105320008630012B01D80123BB747B6893F886304B
:10533000012B08D001237B7405E0BB7C5B00BB74B0
:105340007B7C5B007B747B78002BC5D100BF1C3756
:10535000BD465DF8047B704780B582B000AF7860D1
:105360007B68002283F849207B68002283F84B2069
:105370007B68FF2283F84A207B68FF2283F84C2059
:105380007B685B6B5B687868984700BF0837BD46F1
:1053900080BD80B584B000AFF860B9603B60134653
:1053A000FB71FB6800221A65FB683A681A63FB68A8
:1053B000BA689A63FB68FA7983F83C20FB6800229C
:1053C00083F83D20FB68002283F86320FB680022FD
:1053D00083F88520FB68012283F88620FB68012280
:1053E00083F88720FB68BA695A63FB685B6B1B68AC
:1053F000F8689847F868FFF7AFFFF868FFF71CFDFB
:10540000FB68002283F8662000BF1037BD4680BDD0
:1054100080B485B000AF78607B681B68BB607B6838
:1054200093F83C30FB73FB7BDB00FB737B68FA7B00
:1054300083F83F20BB681B7CFB73FB7B1F2B01D9D0
:105440001F23FB73FB7BDB00FB737B68FA7B83F81A
:105450003E207B6893F83D30FB73FB7BDB00FB73E6
:105460007B68FA7B83F840207B6893F83C30FB73C1
:10547000FB7B7A6892F83D201344BA68527C9342D1
:1054800006DDBB685A7C7B6893F83D30D31AFB730A
:10549000FB7BDB00FB737B6893F840207B6883F821
:1054A00041207B6893F841207B6883F842207B6829
:1054B00093F84220FB7B1344DAB27B6883F84220E6
:1054C0007B68F02283F84320BB689B8AF02B05D8C9
:1054D000BB689B8ADAB27B6883F84320BB68DB8AAF
:1054E000DAB27B6883F8442000BF1437BD465DF80C
:1054F000047B704780B584B002AF78607B6893F816
:1055000049107B6893F84B207B6893F84A007B68CE
:1055100093F84C30009303467868FFF751FE03463A
:10552000002B04D17B68002283F880203BE07B685D
:10553000012283F880207B6893F845207B6893F8EC
:1055400049309A4205D27B6893F849207B6883F8FA
:1055500045207B6893F846207B6893F84A309A424E
:1055600005D97B6893F84A207B6883F846207B68DE
:1055700093F847207B6893F84B309A4205D27B68BA
:1055800093F84B207B6883F847207B6893F848208A
:105590007B6893F84C309A4205D97B6893F84C208D
:1055A0007B6883F8482000BF0837BD4680BD80B5C2
:1055B00082B000AF78607868FFF72AFF00BF083735
:1055C000BD4680BD80B582B000AF78607B680022A8
:1055D00083F845207B6893F843207B6883F8462056
:1055E0007B6893F841207B6883F847207B6893F8B9
:1055F00042207B6883F848207868FFF77BFF00BF74
:105600000837BD4680BD80B584B002AF78600846DB
:1056100011461A460346FB700B46BB7013467B705F
:105620007878BA78F9783B7C009303467868FFF77E
:105630008BFC00BF0837BD4680BD80B483B000AF8F
:1056400078607B68002283F8272000BF0C37BD46B6
:105650005DF8047B704780B483B000AF78600B4680
:10566000FB70FB78002B02D0FB780A2B02D14FF69F
:10567000FF7301E0FB789BB218460C37BD465DF81E
:10568000047B704790B585B000AFF8600B467A6038
:10569000FB72FB681C69FA7A7B681721F868A047DF
:1056A000034618461437BD4690BD80B582B000AFA2
:1056B00078600B46FB70FB1C1A4601217868FFF7E7
:1056C000E1FF034618460837BD4680BD90B583B05C
:1056D00000AF78607B681C6900230022182178687D
:1056E000A047034618460C37BD4690BD90B583B021
:1056F00000AF78607B681C6900230022192178685C
:10570000A047034618460C37BD4690BD90B583B000
:1057100000AF78600B46FB707B68DC68FA7800238A
:1057200015217868A047034618460C37BD4690BD42
:1057300090B583B000AF78600B46FB707B68DC6887
:10574000FA78002316217868A047034618460C37DC
:10575000BD4690BD90B585B000AFF8600B467A604D
:10576000FB72FB68DC68FA7A7B681721F868A0474F
:10577000034618461437BD4690BD90B583B000AFC0
:1057800078607B68DC680023002218217868A047D5
:10579000034618460C37BD4690BD90B583B000AFA8
:1057A00078607B68DC680023002219217868A047B4
:1057B000034618460C37BD4690BD90B585B000AF86
:1057C000786039603B681B78FB733B6801333B6052
:1057D000FB7BFE2B31D0FE2B3DDC192B3BDC182B49
:1057E00023DA162B02DC152B03DA34E0172B0ED04C
:1057F00031E03B681B78BB737B68DC68BA7BF97B64
:1058000000237868A0473B6801333B6022E03B6897
:105810001B78BB7307F10E031A4601217868FFF766
:1058200099FF3B6801333B6014E07B68DC68F97BDF
:10583000002300227868A0470CE03B681B78BB730C
:10584000BB7B1A462921786800F02DFA3B680133AA
:105850003B6000BFB6E700BF1437BD4690BD90B5B2
:1058600085B000AFF8600B467A60FB72F868FFF70E
:105870002DFF4021F868FFF718FFFB681C69FA7AD2
:105880007B681721F868A047F868FFF72FFF00BF73
:105890001437BD4690BD000090B587B000AFF860EA
:1058A0007B600B46FB721346BB72FB7A143B052BE5
:1058B0006ED801A252F823F04F590008D1580008C1
:1058C000FF5800080B590008735900087B5900085D
:1058D000334B1B78002B02D0F868FFF707FFF868FE
:1058E000FFF7F4FE0021F868FFF7DFFEBB7A1946E8
:1058F000F868FFF7DAFE2A4B01221A704AE0BB7AF9
:105900001946F868FFF7D1FE44E0254B1B78002BC1
:1059100002D0F868FFF7EAFE7B687B610AE07A69EB
:105920001821F868FFF79BFFBB7A183BBB727B69B5
:1059300018337B61BB7A182BF1D8BB7A7A69194688
:10594000F868FFF78CFF164B00221A7022E0FB6804
:1059500093F82430FF2B03D1FB68782283F82420AE
:10596000FB681C69BA7AF97A7B68F868A047034635
:1059700011E00B4B00221A700CE0094B1B78002B36
:1059800002D0F868FFF7B2FE054B00221A7001E062
:10599000002300E0012318461C37BD4690BD00BF20
:1059A0004C06002080B586B000AFF8607B600B46E7
:1059B000FB721346BB72FB7A0A3B052B00F2908008
:1059C00001A252F823F000BFE1590008F159000884
:1059D000E15A00080B5A00083D5A00085D5A0008B9
:1059E000F86800F0C3F84249F868FFF7E6FE79E08E
:1059F000BB7A002B04D13F49F868FFF7DEFE71E067
:105A00003D49F868FFF7D9FE6CE0BB7A002B0AD15C
:105A10003A49F868FFF7D1FEFB681B689A7CFB687F
:105A200083F822205EE03649F868FFF7C6FEFB687F
:105A30001B68DA7CFB6883F8222053E0F868FFF7E4
:105A40009CFE8121F868FFF761FEBB7A1946F86871
:105A5000FFF76EFEF868FFF7A0FE43E0F868FFF777
:105A60008CFE7B685B79FB75FB7DDB00FB75FB685F
:105A700093F82220FB7D1344FB75FB7D1B09DBB2F1
:105A800043F01003DBB21946F868FFF73FFEFB7DD9
:105A900003F00F03DBB21946F868FFF737FE7B68A7
:105AA0009B7963F04F03DBB21946F868FFF72EFECF
:105AB0007B681B79BB757B681B683B61BB7DDB002A
:105AC000DBB23A691946F868FFF744FEBB7A013B3E
:105AD000BB72BB7A002BEBD1F868FFF75EFE01E0EA
